:020000040800F2
:100000006806022011020008971200086112000819
:10001000951200085D030008A51500080000000007
:10002000000000000000000000000000AD12000809
:10003000890400080000000099120008AF120008AF
:100040002B0200082B0200082B0200082B020008DC
:100050002B0200082B0200082B0200082B020008CC
:100060002B0200082B0200082B0200082B020008BC
:100070002B0200082B0200082B0200082B020008AC
:100080002B0200082B0200082B0200082B0200089C
:100090002B0200082B0200082B0200082B0200088C
:1000A0002B0200082B0200082B0200082B0200087C
:1000B0002B020008891300082B0200082B020008FD
:1000C0002B0200082B0200082B0200082B0200085C
:1000D0002B020008391500082B0200082B0200082B
:1000E0002B0200082B0200082B0200082B0200083C
:1000F0002B0200082B0200082B0200082B0200082C
:100100002B0200082B0200082B0200082B0200081B
:100110002B0200082B0200082B0200082B0200080B
:100120002B020008110400082B0200082B02000813
:100130002B0200082B0200082B0200082B020008EB
:100140002B0200082B0200082B0200082B020008DB
:100150002B0200082B0200082B0200082B020008CB
:100160002B0200082B0200082B0200082B020008BB
:100170002B0200082B020008050400080000000004
:100180002B0200082B0200082B0200082B0200089B
:100190002B0200082B0200082B0200082B0200088B
:1001A0002B0200082B0200082B0200082B0200087B
:1001B0002B0200082B0200082B0200082B0200086B
:1001C0002B0200082B020008000000002B02000890
:1001D0002B0200082B0200082B0200082B0200084B
:1001E0002B0200082B0200082B0200082B0200083B
:1001F0002B0200082B020008DFF810D000F07CF87A
:1002000000480047FD150008AFF300806806022093
:100210000648804706480047FEE7FEE7FEE7FEE7A0
:10022000FEE7FEE7FEE7FEE7FEE7FEE73513000820
:10023000F90100082DE9F05F0546002092469B4633
:1002400088460646814640241BE0284641464746EC
:10025000224600F041F853465A46C01A914110D345
:1002600011461846224600F028F82D1A67EB0108BF
:100270004F4622460120002100F01FF817EB00092D
:100280004E41201EA4F10104DFDC484631462A46D7
:100290004346BDE8F09FD2B201E000F8012B491EB1
:1002A000FBD270470022F6E710B513460A46044613
:1002B0001946FFF7F0FF204610BD202A04DB203A44
:1002C00000FA02F1002070479140C2F1200320FAA9
:1002D00003F3194390407047202A04DB203A21FAA7
:1002E00002F00021704721FA02F3D040C2F120024F
:1002F0009140084319467047064C074D06E0E068F8
:1003000040F0010394E8070098471034AC42F6D35C
:10031000FFF776FF241600084416000800B587B0E2
:1003200014216846FFF7BEFF0A48016841F0020148
:10033000016000688021012200F002000590002089
:1003400000916946CDE901200390034800F016F9B9
:1003500007B000BD3038024000040240FEE7000054
:10036000F0B5BFF34F8FBFF36F8F1C4900200860BB
:10037000BFF34F8FBFF36F8F194B196841F40031F2
:100380001960BFF34F8FBFF36F8F1549703108604D
:10039000BFF34F8F081F43F6FF7400680F4D1035F1
:1003A000C0F34E31C0F3C90204EA4116104600BF43
:1003B00046EA80772F60401EFAD2491EF4D2BFF37E
:1003C0004F8F186840F480301860BFF34F8FBFF331
:1003D0006F8F024904204C310860F0BD50EF00E0FF
:1003E00014ED00E010B5806B816C496D022906D0D8
:1003F000012180F83510C16C41F04001C16400F06A
:1004000044F810BD014800F053B800007801022004
:10041000194830B41A4C1A49184D603C0068B83974
:10042000174BA84202D9154A543A03E0984203D91F
:10043000124A583A126804E0A04201D94A6800E022
:100440000A6812F4006F15D0A8424FF4006202D976
:100450000A484C3803E0984203D9084850380260F3
:1004600004E0A04201D9CA6000E08A600548406803
:1004700030BC004730BC7047C801022058640240BD
:10048000B8600240280002207047704710B501F0A4
:10049000ABF80549054A0878401C08701068C16827
:1004A00041F00101C16010BD280002207801022046
:1004B0002DE9F04104460068254F042605696907C7
:1004C0000BD54661E06C40F00200E06484F83560D2
:1004D000A06C0765A06C00F03FF8A80711D5216853
:1004E00002204861E06C40F00100E06484F835606F
:1004F000A06C0765A06C00F02FF810B1A06CFFF79E
:1005000071FFE80605D5216810204861204600F0FB
:1005100021F8280705D5216808204861204600F009
:100520001AF8E80712D020680168890703D5C16866
:1005300021F01E01C16020680121C26822F0010281
:10054000C260206841612046FFF7A0FFBDE8F0814E
:10055000E50300087047704790F83510022903D072
:100560008021416501207047052180F83510006821
:10057000016821F001010160002070472DE9F84F6A
:1005800000224FF001094FF0030A4FF00F0E00BF99
:100590000B6809FA02F42340A34270D14D68012D83
:1005A00005D0022D03D0112D01D0122D11D1856857
:1005B0005700CE680AFA07FC25EA0C05BE402E4318
:1005C000866045680E79A543C6F3001696402E4313
:1005D0004660C56856008F680AFA06F4A543B7401E
:1005E0002F43C7604D68022D01D0122D12D1D508BE
:1005F0000F694FEA427C00EB8505AB462D6A4FEA56
:10060000DC6C0EFA0CF807FA0CF725EA08052F4304
:10061000CBF820700D79076805F00305A743B540B6
:100620003D4305604C68E40074D53D4C256845F4B5
:1006300080452560246822F00307960704F480446F
:100640000094384C360F2744D7F80848DFF8D8C054
:100650000EFA06F5604524EA050401D100252EE0D6
:10066000324DA84201D1012529E0314DA84201D1E6
:10067000022524E02F4DA84202D103251FE049E0C6
:100680002D4DA84201D1042519E02C4DA84201D1DD
:10069000052514E02A4DA84201D106250FE0294D79
:1006A000A84201D107250AE0274DA84201D108251B
:1006B00005E0264DA84201D1092500E00A25B540F4
:1006C000234E2543C7F808584D683468ED0324EAE3
:1006D000030400D51C431E4D34602D1D4E682C684C
:1006E000B60324EA030400D51C43194E2C600836D7
:1006F0004D683468ED0224EA030400D51C43144D10
:1007000034600C354E682C68B60224EA030400D528
:100710001C432C60521C102AFFF43AAFBDE8F88F3E
:100720004438024000300140000002400004024012
:1007300000080240000C0240001002400014024079
:1007400000180240001C0240002002400024024029
:10075000003C014042690A4200D0090481617047AF
:1007600001488068704700001C0002200248816830
:1007700002781144816070471C000220094810B5BE
:10078000016841F400710160016841F48071016009
:10079000032000F057F80F2000F006F800F024F8CE
:1007A000002010BD003C024070B50D4D04464FF4D2
:1007B0007A700C4A29781268B0FBF1F0B2FBF0F0C5
:1007C00000F0EEFA48B9102C07D200222146501E44
:1007D00000F018F800206C6070BD012070BD0000B2
:1007E0001C000220140002207047002809DB410988
:1007F00000F01F028900012001F1E0219040C1F8C2
:10080000000170470E4BF0B41B680D46C3F3022382
:10081000C3F10706042E00D90426191D072901D2A9
:10082000002300E0DB1E012404FA06F19C40491E6F
:100830002940641E994014402143F0BC00F0B3BE2F
:100840000CED00E0064900F0070210B54FF6FF047A
:100850000868044B204040EA02201843086010BD9D
:100860000CED00E00000FA050248016841F48071D7
:1008700001607047007000402DE9F04705000F4609
:1008800063D0444E306800F00F00B84209D230689F
:1008900020F00F0038433060306800F00F00B8429D
:1008A00053D128683C4C810712D5400703D52068F6
:1008B00040F4E05020602878000703D5206840F419
:1008C00060402060A968206820F0F00008432060A4
:1008D0002878C0072AD0304968680839012810D024
:1008E0000968022810D0890700292EDA216821F032
:1008F000030101432160FFF733FF804641F288394D
:100900000DE009688903EFE78901EDE7FFF728FFAC
:10091000A0EB0801494502D90320BDE8F0876868CB
:10092000216801F00C01B1EB800FEFD1306800F0CD
:100930000F00B8420BD9306820F00F003843306008
:10094000306800F00F00B84201D00120E5E72878B8
:10095000400705D5E968206820F4E050084320608E
:100960002878000706D52869216821F4604141EA0A
:10097000C000206000F018F82168084AC1F3031194
:10098000515CC8400649086006480068FFF70CFF44
:100990000020C2E7003C024008380240121600085E
:1009A0001400022020000220154910B515480968DE
:1009B00011F00C0213D04110042A0FD0082A0ED1D6
:1009C0000F4C241F2268236802F03F025B0207D508
:1009D0002068C0F38810A0FB010106E0084610BDA6
:1009E0002168C1F38811A1FB00010023FFF722FC5D
:1009F0002168C1F30141491C4900B0FBF1F010BD71
:100A0000083802400024F4002DE9F84F04004FF0AC
:100A100000076ED02078DFF87CA3AAF10408C00795
:100A2000A8F104054CD0DAF800105046C1F381015A
:100A3000012908D00068C0F3810002280AD1D8F843
:100A40000000400206D52868800339D56068002878
:100A5000DFD035E06068B0F5803F0BD010B1B0F565
:100A6000A02F11D0286820F480302860286820F456
:100A7000802002E0286840F480302860606890B1EF
:100A8000FFF76EFE06460AE0286840F480202860E2
:100A9000F0E700BFFFF764FE801B642872D8286867
:100AA0008003F7D50CE0FFF75BFE064605E000BFCC
:100AB000FFF756FE801B6428F0D828688003F7D41F
:100AC0002078800742D5DAF80010504611F00C0F5C
:100AD00008D00068C0F3810002280BD1D8F80000CC
:100AE000400207D42868800718D5E068012800D1A3
:100AF00014E04AE1E0680028286817D040F00100BF
:100B00002860FFF72DFE064605E000BFFFF728FE30
:100B1000801B0228C2D828688007F7D52069296879
:100B200021F0F80141EAC00028600FE020F0010048
:100B30002860FFF715FE064605E000BFFFF710FE30
:100B4000801B02281ED828688007F7D42078000769
:100B500029D5904861696C3000298146016812D01E
:100B600041F001010160FFF7FBFD064605E000BF13
:100B7000FFF7F6FD801B022804D8D9F80000800793
:100B8000F6D510E089E021F001010160FFF7E8FDF2
:100B9000064604E0FFF7E4FD801B02287DD8D9F863
:100BA00000008007F6D4207840076BD5DFF8E49189
:100BB00009F13809D9F80000C0000BD4D9F80010A9
:100BC00041F08051C9F80010D9F80000012700F069
:100BD0008050009070480168C90512D401688346AE
:100BE00041F480710160FFF7BBFD064605E000BFE0
:100BF000FFF7B6FD801B64284FD8DBF80000C00566
:100C0000F6D5644EA068683601280AD008B10528D8
:100C100011D0306820F001003060306820F004000E
:100C200002E0306840F001003060A068A0B1FFF73A
:100C300097FD83460CE0306840F004003060F0E738
:100C4000FFF78EFDA0EB0B0141F28830814268D89E
:100C500030688007F4D50EE0FFF782FD834607E099
:100C6000FFF77EFDA0EB0B0141F28830814258D89E
:100C700030688007F4D42FB1D9F8001021F08051EA
:100C8000C9F80010A069E0B3DAF80010C1F38101DF
:100C900002294DD00228286800E042E020F0807050
:100CA000286003D0FFF75CFD04463DE0FFF758FDE8
:100CB000064604E0FFF754FD801B022831D828685F
:100CC0008001F7D4D4E90921DFF8D0C0D4E90706C0
:100CD00094F830304F0894F82C1030430CEB074454
:100CE00044EA8212104340EA016040EA0370C8F807
:100CF0000000286840F080702860FFF731FD04464E
:100D000005E044E0FFF72CFD001B022809D8286805
:100D10008001F7D53BE000BFFFF722FD001B022852
:100D200002D90320BDE8F88F28688001F4D42EE0B2
:100D30000128D8F8000028D0E16900F480028A4236
:100D400023D1216A00F03F028A421ED1626A47F62F
:100D5000C0710140B1EB821F17D1A16A4FF0FF3281
:100D600000F4403302EB5101B3EB014F0DD194F885
:100D70002C1000F07062B2EB016F06D194F83010C5
:100D800000F0E040B0EB017F01D00120CAE7002075
:100D9000C8E7000008380240007000400000FFFF74
:100DA000401EB0F1807F10B501D3012010BD4FF07F
:100DB000E02460610F21601700F0F5FB0020A061C6
:100DC0000721216110BD70477047704710B50400BE
:100DD00003D094F83D0010B107E0012010BD0020C1
:100DE00084F83C00204600F00DF8022084F83D0015
:100DF0002068211D00F0CEFA012084F83D0000207B
:100E000010BD000008B500680B49884212D10B489C
:100E1000016841F00201016000680022114600F003
:100E2000020000901D20FFF7EDFCBDE808401D20EA
:100E3000FFF7DBBC08BD0000000400404038024062
:100E40000168094ACB6843F00103CB6001688868F8
:100E50001040062806D0B0F5803F03D0086840F067
:100E6000010008600020704707000100704770B55E
:100E70000446006800250169C943890715D4C16883
:100E8000C943890711D4EA1E026101212177206834
:100E900080698007204602D0FFF7E8FF04E000F0F9
:100EA000A7F8204600F0A5F8257720680169C94316
:100EB000490717D4C168C943490713D402216FF009
:100EC0000402026121772068806910F4407F204687
:100ED00002D0FFF7CBFF04E000F08AF8204600F0D4
:100EE00088F8257720680169C943090716D4C168C5
:100EF000C943090712D404216FF008020261217767
:100F00002068C0698007204602D0FFF7AFFF04E0E9
:100F100000F06EF8204600F06CF825772068016933
:100F2000C943C90617D4C168C943C90613D40821E7
:100F30006FF01002026121772068C06910F4407FD1
:100F4000204602D0FFF792FF04E000F051F820465F
:100F500000F04FF8257720680169C943C90708D117
:100F6000C168C943C90704D1891E0161204600F048
:100F700041F820680169C943090609D4C168C94319
:100F8000090605D46FF0800101612046FFF71CFFC0
:100F900020680169C943C90509D4C168C943090664
:100FA00005D46FF4807101612046FFF70CFF2068C3
:100FB0000169C943490609D4C168C943490605D432
:100FC0006FF040010161204600F020F820680169BF
:100FD000C94389060BD4C168C943890607D46FF099
:100FE000200101612046BDE87040FFF7EEBE70BDF4
:100FF000704770470349884203D103488021FFF7B7
:10100000A9BB7047280202200004024070477047C5
:10101000704700002DE9F04102680446002540F6C3
:101020000F06D06911689368304205D186067BD5DA
:101030008E0679D5216E87E003F0010601F49077E2
:10104000374371D0C70707D0CF0505D501271762F1
:10105000E26F42F00102E267820708D5DA0706D0A4
:10106000276802223A62E26F42F00402E267420716
:1010700008D5DA0706D0236804221A62E26F42F02C
:101080000202E26702070AD501F02002324306D0CD
:10109000236808221A62E26F42F00802E267020542
:1010A00009D54A0107D523684FF400621A62E26F3E
:1010B00042F02002E267E26F002A2ED0800605D5BA
:1010C000880603D5216E09B1204688472168E06F64
:1010D0008968490602D410F0280F20D0204600F07D
:1010E000C9F920688168490614D5816821F040015A
:1010F0008160E06E70B11D490165E06EFFF72CFA6A
:1011000000280AD0E06E016D00E02046BDE8F04105
:10111000084709E02046FFF77BFFBDE8F081204645
:10112000FFF776FFE567F8E7C60208D55B0206D54C
:101130004FF4801010622046FFF769FFEDE70306C9
:1011400005D50B0603D5616E0029DED1E5E7400623
:10115000E3D54806E1D513682021204623F040035B
:1011600013606167656600F07AF8D6E761140008DD
:101170002DE9F84F0446806F9A4616460D46202802
:101180006BD1EDB1E6B194F87000012865D0012271
:1011900084F8702022214FF00008C4F87C80A167F9
:1011A000FFF7DEFA8146A068A4F858604FF4805338
:1011B000A4F85A60FF21984208D122691AB11DE0B3
:1011C0000120BDE8F88F40F2FF1117E04FF07F02D9
:1011D00090B1B0F1805F14D0A4F85C809842B4F86C
:1011E0005C7001D1206998B12E460025404607F079
:1011F000FF0884F8700024E0266936B9A4F85C1072
:10120000ECE7216909B13F21F8E7A4F85C20E5E7A4
:101210000026EBE700224B4620212046CDF800A017
:1012200000F038F908B10320CBE72068406A86B1A6
:1012300000EA080006F8010BB4F85A00401EA4F8B2
:101240005A00B4F85A000028E4D12020A0670020FA
:10125000B7E7384025F8020BEEE70220B1E7704708
:10126000FEE700000A484F2210B5002142F2CF03EA
:10127000064CC0E902120161C0E90043FFF7A6FD78
:10128000BDE810400248FFF7DBBD0000000400404D
:1012900028020220FEE770477047000002484FF422
:1012A0008041FFF757BA0000000402407047FFF783
:1012B0005DBA000030B5B7B034216846FEF7F2FFE2
:1012C000142131A8FEF7EEFF90210DA8FEF7EAFFEA
:1012D000FFF7CAFA1648016821F4404141F4004181
:1012E00001600068002508AB0224009400F440402F
:1012F00036900120039008216846A822CDE90645D2
:1013000083E816000B94FFF77FFB00B1FEE74FF474
:1013100080524FF4A0510F20CDE9341231AA05219B
:1013200082E8310031A8FFF7A7FA37B030BD0000DE
:1013300000700040104A30B51048146800210F4B6F
:1013400044F470041460083305680D4A0D4C45F0F0
:101350000105056019600368051D1340074A036015
:101360000C322C600568E305034C25F480250560EC
:10137000803C1160236030BD88ED00E00038024001
:10138000FFFFF6FE103000240148FFF770BD00009B
:1013900028020220F0B5274B4FF0804E264D026800
:1013A0009842264E264F274C09D0704507D0A842B8
:1013B00005D0B04203D0B84201D0A04205D1D1F847
:1013C00004C022F070024CEA020298421BD0704521
:1013D00019D0A84217D0B04215D0B84213D0A042BD
:1013E00011D0194DA8420ED0184DA8420BD0184D5F
:1013F000A84208D0174DA84205D0174DA84202D0E8
:10140000164DA84203D1CD6822F440722A434D699B
:1014100022F080022A43026098428A68C2620A6807
:10142000826201D0A04201D10969016301214161B9
:10143000F0BD000000000140000400400008004032
:10144000000C004000040140004001400044014005
:101450000048014000180040001C004000200040EF
:1014600010B5806B0021A0F85A10A0F85210FFF7B9
:10147000CFFD10BD10B50168202200230C6824F4B4
:1014800090740C6001688C6824F001048C608267A1
:10149000036610BD2DE9F0479A4617460E460446EE
:1014A000089D4FF000094FF0200839E0681C37D044
:1014B000FFF756F9A0EB0A00A84222D80DB3206826
:1014C000016849072CD5C069C043000528D42368AA
:1014D0004FF40061196221680B6823F4D0730B602C
:1014E00021688B6823F001038B60C4F87480C4F812
:1014F0007880C4F87C8000BF032084F87090BDE839
:10150000F08721680B6823F4D0730B6021688B6827
:1015100023F001038B60C4F87480C4F87880EBE793
:101520002068C06936EA000004D00020B842BDD06F
:101530000020E4E70120F9E7184838B50068C069E1
:10154000C043800622D4154801224FF47A736946BD
:10155000FFF70EFE124801880A0417D44A049DF8CA
:1015600000204FF0000304D50A2A0ED141F40041B7
:1015700012E00D2A0ED0094DC1F30D04491CC83DDF
:1015800089B2C7292A55018000D903800348FFF793
:1015900041FD38BD41F480410180F7E7F8000220A9
:1015A00018000220FEE7090700284FEA116104DB5A
:1015B00000F1E02080F80014704700F00F0000F107
:1015C000E02080F8141D704702E008C8121F08C10F
:1015D000002AFAD170477047002001E001C1121FB4
:1015E000002AFBD17047000010B5FFF757FE0249F3
:1015F0000120087010BD000000000220FEF7B0FEC0
:10160000FFF7BCF8FFF756FEFEF788FEFFF72AFE4D
:10161000FEE70000000000000000010203040607CE
:1016200008090000441600080000022030000000F5
:10163000C8150008741600083000022038060000A3
:10164000D8150008000000000000000000000000A5
:1016500000000000000000000024F4000000000072
:101660000100000010000000000000000000000069
:041670000000000076
:04000005080001F9F5
:00000001FF
